{"test/contracts/GasOptimizations.sol":{"GasWaster":{"abi":[{"inputs":[{"internalType":"uint256","name":"","type":"uint256"}],"name":"array","outputs":[{"internalType":"uint256","name":"","type":"uint256"}],"stateMutability":"view","type":"function"},{"inputs":[{"internalType":"string[]","name":"data","type":"string[]"}],"name":"externalWithMemory","outputs":[{"internalType":"uint256","name":"","type":"uint256"}],"stateMutability":"pure","type":"function"},{"inputs":[],"name":"inefficientLoop","outputs":[],"stateMutability":"nonpayable","type":"function"},{"inputs":[],"name":"multipleStateReads","outputs":[{"internalType":"uint256","name":"","type":"uint256"}],"stateMutability":"view","type":"function"},{"inputs":[],"name":"stateVar","outputs":[{"internalType":"uint256","name":"","type":"uint256"}],"stateMutability":"view","type":"function"}],"evm":{"bytecode":{"linkReferences":{},"object":"6080604052348015600f57600080fd5b506103798061001f6000396000f3fe608060405234801561001057600080fd5b50600436106100575760003560e01c806338d941931461005c5780633c2f022d1461008157806377b7229c14610089578063793816ec14610093578063ccc6237c1461009c575b600080fd5b61006f61006a36600461016c565b6100ae565b60405190815260200160405180910390f35b61006f6100cf565b61009161013e565b005b61006f60005481565b61006f6100aa3660046101cc565b5190565b600181815481106100be57600080fd5b600091825260209091200154905081565b600080548190600a10156100ed576000546100ea9082610313565b90505b601460005411156101135760005461010690600261032c565b6101109082610313565b90505b601e60005411156101395760005461012c90600361032c565b6101369082610313565b90505b919050565b60005b600154811015610169578060008082825461015c9190610313565b9091555050600101610141565b50565b60006020828403121561017e57600080fd5b5035919050565b634e487b7160e01b600052604160045260246000fd5b604051601f8201601f1916810167ffffffffffffffff811182821017156101c4576101c4610185565b604052919050565b6000602082840312156101de57600080fd5b813567ffffffffffffffff8111156101f557600080fd5b8201601f8101841361020657600080fd5b803567ffffffffffffffff81111561022057610220610185565b8060051b6102306020820161019b565b9182526020818401810192908101908784111561024c57600080fd5b6020850192505b838310156102f257823567ffffffffffffffff81111561027257600080fd5b8501603f8101891361028357600080fd5b602081013567ffffffffffffffff8111156102a0576102a0610185565b6102b3601f8201601f191660200161019b565b8181526040838301018b10156102c857600080fd5b81604084016020830137600060208383010152808552505050602082019150602083019250610253565b979650505050505050565b634e487b7160e01b600052601160045260246000fd5b80820180821115610326576103266102fd565b92915050565b8082028115828204841417610326576103266102fd56fea26469706673582212209a570f8e4962e5217ed6b8ee9848cd79986acfbe3507732076e5651628378d7b64736f6c634300081c0033","opcodes":"PUSH1 0x80 PUSH1 0x40 MSTORE CALLVALUE DUP1 ISZERO PUSH1 0xF JUMPI PUSH1 0x0 DUP1 REVERT JUMPDEST POP PUSH2 0x379 DUP1 PUSH2 0x1F PUSH1 0x0 CODECOPY PUSH1 0x0 RETURN INVALID PUSH1 0x80 PUSH1 0x40 MSTORE CALLVALUE DUP1 ISZERO PUSH2 0x10 JUMPI PUSH1 0x0 DUP1 REVERT JUMPDEST POP PUSH1 0x4 CALLDATASIZE LT PUSH2 0x57 JUMPI PUSH1 0x0 CALLDATALOAD PUSH1 0xE0 SHR DUP1 PUSH4 0x38D94193 EQ PUSH2 0x5C JUMPI DUP1 PUSH4 0x3C2F022D EQ PUSH2 0x81 JUMPI DUP1 PUSH4 0x77B7229C EQ PUSH2 0x89 JUMPI DUP1 PUSH4 0x793816EC EQ PUSH2 0x93 JUMPI DUP1 PUSH4 0xCCC6237C EQ PUSH2 0x9C JUMPI JUMPDEST PUSH1 0x0 DUP1 REVERT JUMPDEST PUSH2 0x6F PUSH2 0x6A CALLDATASIZE PUSH1 0x4 PUSH2 0x16C JUMP JUMPDEST PUSH2 0xAE JUMP JUMPDEST PUSH1 0x40 MLOAD SWAP1 DUP2 MSTORE PUSH1 0x20 ADD PUSH1 0x40 MLOAD DUP1 SWAP2 SUB SWAP1 RETURN JUMPDEST PUSH2 0x6F PUSH2 0xCF JUMP JUMPDEST PUSH2 0x91 PUSH2 0x13E JUMP JUMPDEST STOP JUMPDEST PUSH2 0x6F PUSH1 0x0 SLOAD DUP2 JUMP JUMPDEST PUSH2 0x6F PUSH2 0xAA CALLDATASIZE PUSH1 0x4 PUSH2 0x1CC JUMP JUMPDEST MLOAD SWAP1 JUMP JUMPDEST PUSH1 0x1 DUP2 DUP2 SLOAD DUP2 LT PUSH2 0xBE JUMPI PUSH1 0x0 DUP1 REVERT JUMPDEST PUSH1 0x0 SWAP2 DUP3 MSTORE PUSH1 0x20 SWAP1 SWAP2 KECCAK256 ADD SLOAD SWAP1 POP DUP2 JUMP JUMPDEST PUSH1 0x0 DUP1 SLOAD DUP2 SWAP1 PUSH1 0xA LT ISZERO PUSH2 0xED JUMPI PUSH1 0x0 SLOAD PUSH2 0xEA SWAP1 DUP3 PUSH2 0x313 JUMP JUMPDEST SWAP1 POP JUMPDEST PUSH1 0x14 PUSH1 0x0 SLOAD GT ISZERO PUSH2 0x113 JUMPI PUSH1 0x0 SLOAD PUSH2 0x106 SWAP1 PUSH1 0x2 PUSH2 0x32C JUMP JUMPDEST PUSH2 0x110 SWAP1 DUP3 PUSH2 0x313 JUMP JUMPDEST SWAP1 POP JUMPDEST PUSH1 0x1E PUSH1 0x0 SLOAD GT ISZERO PUSH2 0x139 JUMPI PUSH1 0x0 SLOAD PUSH2 0x12C SWAP1 PUSH1 0x3 PUSH2 0x32C JUMP JUMPDEST PUSH2 0x136 SWAP1 DUP3 PUSH2 0x313 JUMP JUMPDEST SWAP1 POP JUMPDEST SWAP2 SWAP1 POP JUMP JUMPDEST PUSH1 0x0 JUMPDEST PUSH1 0x1 SLOAD DUP2 LT ISZERO PUSH2 0x169 JUMPI DUP1 PUSH1 0x0 DUP1 DUP3 DUP3 SLOAD PUSH2 0x15C SWAP2 SWAP1 PUSH2 0x313 JUMP JUMPDEST SWAP1 SWAP2 SSTORE POP POP PUSH1 0x1 ADD PUSH2 0x141 JUMP JUMPDEST POP JUMP JUMPDEST PUSH1 0x0 PUSH1 0x20 DUP3 DUP5 SUB SLT ISZERO PUSH2 0x17E JUMPI PUSH1 0x0 DUP1 REVERT JUMPDEST POP CALLDATALOAD SWAP2 SWAP1 POP JUMP JUMPDEST PUSH4 0x4E487B71 PUSH1 0xE0 SHL PUSH1 0x0 MSTORE PUSH1 0x41 PUSH1 0x4 MSTORE PUSH1 0x24 PUSH1 0x0 REVERT JUMPDEST PUSH1 0x40 MLOAD PUSH1 0x1F DUP3 ADD PUSH1 0x1F NOT AND DUP2 ADD PUSH8 0xFFFFFFFFFFFFFFFF DUP2 GT DUP3 DUP3 LT OR ISZERO PUSH2 0x1C4 JUMPI PUSH2 0x1C4 PUSH2 0x185 JUMP JUMPDEST PUSH1 0x40 MSTORE SWAP2 SWAP1 POP JUMP JUMPDEST PUSH1 0x0 PUSH1 0x20 DUP3 DUP5 SUB SLT ISZERO PUSH2 0x1DE JUMPI PUSH1 0x0 DUP1 REVERT JUMPDEST DUP2 CALLDATALOAD PUSH8 0xFFFFFFFFFFFFFFFF DUP2 GT ISZERO PUSH2 0x1F5 JUMPI PUSH1 0x0 DUP1 REVERT JUMPDEST DUP3 ADD PUSH1 0x1F DUP2 ADD DUP5 SGT PUSH2 0x206 JUMPI PUSH1 0x0 DUP1 REVERT JUMPDEST DUP1 CALLDATALOAD PUSH8 0xFFFFFFFFFFFFFFFF DUP2 GT ISZERO PUSH2 0x220 JUMPI PUSH2 0x220 PUSH2 0x185 JUMP JUMPDEST DUP1 PUSH1 0x5 SHL PUSH2 0x230 PUSH1 0x20 DUP3 ADD PUSH2 0x19B JUMP JUMPDEST SWAP2 DUP3 MSTORE PUSH1 0x20 DUP2 DUP5 ADD DUP2 ADD SWAP3 SWAP1 DUP2 ADD SWAP1 DUP8 DUP5 GT ISZERO PUSH2 0x24C JUMPI PUSH1 0x0 DUP1 REVERT JUMPDEST PUSH1 0x20 DUP6 ADD SWAP3 POP JUMPDEST DUP4 DUP4 LT ISZERO PUSH2 0x2F2 JUMPI DUP3 CALLDATALOAD PUSH8 0xFFFFFFFFFFFFFFFF DUP2 GT ISZERO PUSH2 0x272 JUMPI PUSH1 0x0 DUP1 REVERT JUMPDEST DUP6 ADD PUSH1 0x3F DUP2 ADD DUP10 SGT PUSH2 0x283 JUMPI PUSH1 0x0 DUP1 REVERT JUMPDEST PUSH1 0x20 DUP2 ADD CALLDATALOAD PUSH8 0xFFFFFFFFFFFFFFFF DUP2 GT ISZERO PUSH2 0x2A0 JUMPI PUSH2 0x2A0 PUSH2 0x185 JUMP JUMPDEST PUSH2 0x2B3 PUSH1 0x1F DUP3 ADD PUSH1 0x1F NOT AND PUSH1 0x20 ADD PUSH2 0x19B JUMP JUMPDEST DUP2 DUP2 MSTORE PUSH1 0x40 DUP4 DUP4 ADD ADD DUP12 LT ISZERO PUSH2 0x2C8 JUMPI PUSH1 0x0 DUP1 REVERT JUMPDEST DUP2 PUSH1 0x40 DUP5 ADD PUSH1 0x20 DUP4 ADD CALLDATACOPY PUSH1 0x0 PUSH1 0x20 DUP4 DUP4 ADD ADD MSTORE DUP1 DUP6 MSTORE POP POP POP PUSH1 0x20 DUP3 ADD SWAP2 POP PUSH1 0x20 DUP4 ADD SWAP3 POP PUSH2 0x253 JUMP JUMPDEST SWAP8 SWAP7 POP POP POP POP POP POP POP JUMP JUMPDEST PUSH4 0x4E487B71 PUSH1 0xE0 SHL PUSH1 0x0 MSTORE PUSH1 0x11 PUSH1 0x4 MSTORE PUSH1 0x24 PUSH1 0x0 REVERT JUMPDEST DUP1 DUP3 ADD DUP1 DUP3 GT ISZERO PUSH2 0x326 JUMPI PUSH2 0x326 PUSH2 0x2FD JUMP JUMPDEST SWAP3 SWAP2 POP POP JUMP JUMPDEST DUP1 DUP3 MUL DUP2 ISZERO DUP3 DUP3 DIV DUP5 EQ OR PUSH2 0x326 JUMPI PUSH2 0x326 PUSH2 0x2FD JUMP INVALID LOG2 PUSH5 0x6970667358 0x22 SLT KECCAK256 SWAP11 JUMPI 0xF DUP15 BLOBHASH PUSH3 0xE5217E 0xD6 0xB8 0xEE SWAP9 BASEFEE 0xCD PUSH26 0x986ACFBE3507732076E5651628378D7B64736F6C634300081C00 CALLER "},"methodIdentifiers":{"array(uint256)":"38d94193","externalWithMemory(string[])":"ccc6237c","inefficientLoop()":"77b7229c","multipleStateReads()":"3c2f022d","stateVar()":"793816ec"}}}}}