{
  "_format": "hh-sol-artifact-1",
  "contractName": "GasWaster",
  "sourceName": "test/contracts/GasOptimizations.sol",
  "abi": [
    {
      "inputs": [
        {
          "internalType": "uint256",
          "name": "",
          "type": "uint256"
        }
      ],
      "name": "array",
      "outputs": [
        {
          "internalType": "uint256",
          "name": "",
          "type": "uint256"
        }
      ],
      "stateMutability": "view",
      "type": "function"
    },
    {
      "inputs": [
        {
          "internalType": "string[]",
          "name": "data",
          "type": "string[]"
        }
      ],
      "name": "externalWithMemory",
      "outputs": [
        {
          "internalType": "uint256",
          "name": "",
          "type": "uint256"
        }
      ],
      "stateMutability": "pure",
      "type": "function"
    },
    {
      "inputs": [],
      "name": "inefficientLoop",
      "outputs": [],
      "stateMutability": "nonpayable",
      "type": "function"
    },
    {
      "inputs": [],
      "name": "multipleStateReads",
      "outputs": [
        {
          "internalType": "uint256",
          "name": "",
          "type": "uint256"
        }
      ],
      "stateMutability": "view",
      "type": "function"
    },
    {
      "inputs": [],
      "name": "stateVar",
      "outputs": [
        {
          "internalType": "uint256",
          "name": "",
          "type": "uint256"
        }
      ],
      "stateMutability": "view",
      "type": "function"
    }
  ],
  "bytecode": "0x6080604052348015600f57600080fd5b506103798061001f6000396000f3fe608060405234801561001057600080fd5b50600436106100575760003560e01c806338d941931461005c5780633c2f022d1461008157806377b7229c14610089578063793816ec14610093578063ccc6237c1461009c575b600080fd5b61006f61006a36600461016c565b6100ae565b60405190815260200160405180910390f35b61006f6100cf565b61009161013e565b005b61006f60005481565b61006f6100aa3660046101cc565b5190565b600181815481106100be57600080fd5b600091825260209091200154905081565b600080548190600a10156100ed576000546100ea9082610313565b90505b601460005411156101135760005461010690600261032c565b6101109082610313565b90505b601e60005411156101395760005461012c90600361032c565b6101369082610313565b90505b919050565b60005b600154811015610169578060008082825461015c9190610313565b9091555050600101610141565b50565b60006020828403121561017e57600080fd5b5035919050565b634e487b7160e01b600052604160045260246000fd5b604051601f8201601f1916810167ffffffffffffffff811182821017156101c4576101c4610185565b604052919050565b6000602082840312156101de57600080fd5b813567ffffffffffffffff8111156101f557600080fd5b8201601f8101841361020657600080fd5b803567ffffffffffffffff81111561022057610220610185565b8060051b6102306020820161019b565b9182526020818401810192908101908784111561024c57600080fd5b6020850192505b838310156102f257823567ffffffffffffffff81111561027257600080fd5b8501603f8101891361028357600080fd5b602081013567ffffffffffffffff8111156102a0576102a0610185565b6102b3601f8201601f191660200161019b565b8181526040838301018b10156102c857600080fd5b81604084016020830137600060208383010152808552505050602082019150602083019250610253565b979650505050505050565b634e487b7160e01b600052601160045260246000fd5b80820180821115610326576103266102fd565b92915050565b8082028115828204841417610326576103266102fd56fea26469706673582212209a570f8e4962e5217ed6b8ee9848cd79986acfbe3507732076e5651628378d7b64736f6c634300081c0033",
  "linkReferences": {},
  "deployedLinkReferences": {}
}